{
  "contractName": "RentalAgreement",
  "abi": [
    {
      "inputs": [
        {
          "internalType": "address",
          "name": "_owner",
          "type": "address"
        },
        {
          "internalType": "address",
          "name": "_tenant",
          "type": "address"
        },
        {
          "internalType": "uint256",
          "name": "_rentAmount",
          "type": "uint256"
        },
        {
          "internalType": "uint256",
          "name": "_depositAmount",
          "type": "uint256"
        },
        {
          "internalType": "uint256",
          "name": "_startDate",
          "type": "uint256"
        },
        {
          "internalType": "uint256",
          "name": "_endDate",
          "type": "uint256"
        }
      ],
      "stateMutability": "nonpayable",
      "type": "constructor"
    },
    {
      "anonymous": false,
      "inputs": [
        {
          "indexed": true,
          "internalType": "address",
          "name": "owner",
          "type": "address"
        },
        {
          "indexed": true,
          "internalType": "address",
          "name": "tenant",
          "type": "address"
        },
        {
          "indexed": false,
          "internalType": "uint256",
          "name": "rentAmount",
          "type": "uint256"
        },
        {
          "indexed": false,
          "internalType": "uint256",
          "name": "depositAmount",
          "type": "uint256"
        },
        {
          "indexed": false,
          "internalType": "uint256",
          "name": "startDate",
          "type": "uint256"
        },
        {
          "indexed": false,
          "internalType": "uint256",
          "name": "endDate",
          "type": "uint256"
        }
      ],
      "name": "AgreementCreated",
      "type": "event"
    },
    {
      "anonymous": false,
      "inputs": [
        {
          "indexed": true,
          "internalType": "address",
          "name": "terminator",
          "type": "address"
        }
      ],
      "name": "AgreementTerminated",
      "type": "event"
    },
    {
      "anonymous": false,
      "inputs": [
        {
          "indexed": true,
          "internalType": "address",
          "name": "payer",
          "type": "address"
        },
        {
          "indexed": false,
          "internalType": "uint256",
          "name": "amount",
          "type": "uint256"
        }
      ],
      "name": "DepositPaid",
      "type": "event"
    },
    {
      "anonymous": false,
      "inputs": [
        {
          "indexed": true,
          "internalType": "address",
          "name": "payer",
          "type": "address"
        },
        {
          "indexed": false,
          "internalType": "uint256",
          "name": "amount",
          "type": "uint256"
        }
      ],
      "name": "RentPaid",
      "type": "event"
    },
    {
      "inputs": [],
      "name": "depositAmount",
      "outputs": [
        {
          "internalType": "uint256",
          "name": "",
          "type": "uint256"
        }
      ],
      "stateMutability": "view",
      "type": "function"
    },
    {
      "inputs": [],
      "name": "endDate",
      "outputs": [
        {
          "internalType": "uint256",
          "name": "",
          "type": "uint256"
        }
      ],
      "stateMutability": "view",
      "type": "function"
    },
    {
      "inputs": [],
      "name": "isActive",
      "outputs": [
        {
          "internalType": "bool",
          "name": "",
          "type": "bool"
        }
      ],
      "stateMutability": "view",
      "type": "function"
    },
    {
      "inputs": [],
      "name": "isTerminated",
      "outputs": [
        {
          "internalType": "bool",
          "name": "",
          "type": "bool"
        }
      ],
      "stateMutability": "view",
      "type": "function"
    },
    {
      "inputs": [],
      "name": "owner",
      "outputs": [
        {
          "internalType": "address",
          "name": "",
          "type": "address"
        }
      ],
      "stateMutability": "view",
      "type": "function"
    },
    {
      "inputs": [],
      "name": "rentAmount",
      "outputs": [
        {
          "internalType": "uint256",
          "name": "",
          "type": "uint256"
        }
      ],
      "stateMutability": "view",
      "type": "function"
    },
    {
      "inputs": [],
      "name": "startDate",
      "outputs": [
        {
          "internalType": "uint256",
          "name": "",
          "type": "uint256"
        }
      ],
      "stateMutability": "view",
      "type": "function"
    },
    {
      "inputs": [],
      "name": "tenant",
      "outputs": [
        {
          "internalType": "address",
          "name": "",
          "type": "address"
        }
      ],
      "stateMutability": "view",
      "type": "function"
    },
    {
      "stateMutability": "payable",
      "type": "receive"
    },
    {
      "inputs": [],
      "name": "payRent",
      "outputs": [],
      "stateMutability": "payable",
      "type": "function"
    },
    {
      "inputs": [],
      "name": "payDeposit",
      "outputs": [],
      "stateMutability": "payable",
      "type": "function"
    },
    {
      "inputs": [],
      "name": "terminateAgreement",
      "outputs": [],
      "stateMutability": "nonpayable",
      "type": "function"
    },
    {
      "inputs": [],
      "name": "withdrawDeposit",
      "outputs": [],
      "stateMutability": "nonpayable",
      "type": "function"
    },
    {
      "inputs": [],
      "name": "withdrawRent",
      "outputs": [],
      "stateMutability": "nonpayable",
      "type": "function"
    }
  ],
  "bytecode": "0x60806040523480156200001157600080fd5b506040516200125538038062001255833981810160405281019062000037919062000272565b856000806101000a81548173ffffffffffffffffffffffffffffffffffffffff021916908373ffffffffffffffffffffffffffffffffffffffff16021790555084600160006101000a81548173ffffffffffffffffffffffffffffffffffffffff021916908373ffffffffffffffffffffffffffffffffffffffff160217905550836002819055508260038190555081600481905550806005819055506001600660006101000a81548160ff0219169083151502179055506000600660016101000a81548160ff021916908315150217905550600160009054906101000a900473ffffffffffffffffffffffffffffffffffffffff1673ffffffffffffffffffffffffffffffffffffffff1660008054906101000a900473ffffffffffffffffffffffffffffffffffffffff1673ffffffffffffffffffffffffffffffffffffffff167fbea8dd4654f606df0c188be209cc3bb98fc7b8dc2bf39a4765f05c64a29952cc600254600354600454600554604051620001b994939291906200031f565b60405180910390a35050505050506200036c565b600080fd5b600073ffffffffffffffffffffffffffffffffffffffff82169050919050565b6000620001ff82620001d2565b9050919050565b6200021181620001f2565b81146200021d57600080fd5b50565b600081519050620002318162000206565b92915050565b6000819050919050565b6200024c8162000237565b81146200025857600080fd5b50565b6000815190506200026c8162000241565b92915050565b60008060008060008060c08789031215620002925762000291620001cd565b5b6000620002a289828a0162000220565b9650506020620002b589828a0162000220565b9550506040620002c889828a016200025b565b9450506060620002db89828a016200025b565b9350506080620002ee89828a016200025b565b92505060a06200030189828a016200025b565b9150509295509295509295565b620003198162000237565b82525050565b60006080820190506200033660008301876200030e565b6200034560208301866200030e565b6200035460408301856200030e565b6200036360608301846200030e565b95945050505050565b610ed9806200037c6000396000f3fe6080604052600436106100c65760003560e01c80636322182e1161007f578063adf0779111610059578063adf07791146101d7578063c24a0f8b14610202578063d1cc99761461022d578063f8ef1e1314610258576100cd565b80636322182e1461018b5780638da5cb5b146101a2578063a709c4fe146101cd576100cd565b80630b97bc86146100d2578063117df088146100fd57806322f3e2d414610114578063419759f51461013f5780634200dd711461016a5780635c274b8614610181576100cd565b366100cd57005b600080fd5b3480156100de57600080fd5b506100e7610283565b6040516100f49190610a33565b60405180910390f35b34801561010957600080fd5b50610112610289565b005b34801561012057600080fd5b506101296103d1565b6040516101369190610a69565b60405180910390f35b34801561014b57600080fd5b506101546103e4565b6040516101619190610a33565b60405180910390f35b34801561017657600080fd5b5061017f6103ea565b005b61018961055b565b005b34801561019757600080fd5b506101a06106e7565b005b3480156101ae57600080fd5b506101b7610825565b6040516101c49190610ac5565b60405180910390f35b6101d5610849565b005b3480156101e357600080fd5b506101ec6109d5565b6040516101f99190610ac5565b60405180910390f35b34801561020e57600080fd5b506102176109fb565b6040516102249190610a33565b60405180910390f35b34801561023957600080fd5b50610242610a01565b60405161024f9190610a69565b60405180910390f35b34801561026457600080fd5b5061026d610a14565b60405161027a9190610a33565b60405180910390f35b60045481565b60008054906101000a900473ffffffffffffffffffffffffffffffffffffffff1673ffffffffffffffffffffffffffffffffffffffff163373ffffffffffffffffffffffffffffffffffffffff1614610317576040517f08c379a000000000000000000000000000000000000000000000000000000000815260040161030e90610b63565b60405180910390fd5b600660019054906101000a900460ff16610366576040517f08c379a000000000000000000000000000000000000000000000000000000000815260040161035d90610bf5565b60405180910390fd5b60008054906101000a900473ffffffffffffffffffffffffffffffffffffffff1673ffffffffffffffffffffffffffffffffffffffff166108fc6003549081150290604051600060405180830381858888f193505050501580156103ce573d6000803e3d6000fd5b50565b600660009054906101000a900460ff1681565b60035481565b60008054906101000a900473ffffffffffffffffffffffffffffffffffffffff1673ffffffffffffffffffffffffffffffffffffffff163373ffffffffffffffffffffffffffffffffffffffff1614610478576040517f08c379a000000000000000000000000000000000000000000000000000000000815260040161046f90610b63565b60405180910390fd5b600660009054906101000a900460ff1680156104a15750600660019054906101000a900460ff16155b6104e0576040517f08c379a00000000000000000000000000000000000000000000000000000000081526004016104d790610c87565b60405180910390fd5b6001600660016101000a81548160ff0219169083151502179055506000600660006101000a81548160ff0219169083151502179055503373ffffffffffffffffffffffffffffffffffffffff167f0cb7f2c80cbc4263079ffcaa0cdbf888607cbdce2c24ff4e4da6b62cbb7e39c260405160405180910390a2565b600160009054906101000a900473ffffffffffffffffffffffffffffffffffffffff1673ffffffffffffffffffffffffffffffffffffffff163373ffffffffffffffffffffffffffffffffffffffff16146105eb576040517f08c379a00000000000000000000000000000000000000000000000000000000081526004016105e290610d19565b60405180910390fd5b600660009054906101000a900460ff1680156106145750600660019054906101000a900460ff16155b610653576040517f08c379a000000000000000000000000000000000000000000000000000000000815260040161064a90610c87565b60405180910390fd5b6003543414610697576040517f08c379a000000000000000000000000000000000000000000000000000000000815260040161068e90610d85565b60405180910390fd5b3373ffffffffffffffffffffffffffffffffffffffff167ff1953715a33b9e021c0f2cf12911e8ac25fdb177bf6fc92d1331ae05201fe9f6346040516106dd9190610a33565b60405180910390a2565b60008054906101000a900473ffffffffffffffffffffffffffffffffffffffff1673ffffffffffffffffffffffffffffffffffffffff163373ffffffffffffffffffffffffffffffffffffffff1614610775576040517f08c379a000000000000000000000000000000000000000000000000000000000815260040161076c90610b63565b60405180910390fd5b6005544210156107ba576040517f08c379a00000000000000000000000000000000000000000000000000000000081526004016107b190610e17565b60405180910390fd5b60008054906101000a900473ffffffffffffffffffffffffffffffffffffffff1673ffffffffffffffffffffffffffffffffffffffff166108fc6002549081150290604051600060405180830381858888f19350505050158015610822573d6000803e3d6000fd5b50565b60008054906101000a900473ffffffffffffffffffffffffffffffffffffffff1681565b600160009054906101000a900473ffffffffffffffffffffffffffffffffffffffff1673ffffffffffffffffffffffffffffffffffffffff163373ffffffffffffffffffffffffffffffffffffffff16146108d9576040517f08c379a00000000000000000000000000000000000000000000000000000000081526004016108d090610d19565b60405180910390fd5b600660009054906101000a900460ff1680156109025750600660019054906101000a900460ff16155b610941576040517f08c379a000000000000000000000000000000000000000000000000000000000815260040161093890610c87565b60405180910390fd5b6002543414610985576040517f08c379a000000000000000000000000000000000000000000000000000000000815260040161097c90610e83565b60405180910390fd5b3373ffffffffffffffffffffffffffffffffffffffff167f03b5033869479e8a98af42b272f05933f60489fe9fb43d63e11a6c31f3fa7474346040516109cb9190610a33565b60405180910390a2565b600160009054906101000a900473ffffffffffffffffffffffffffffffffffffffff1681565b60055481565b600660019054906101000a900460ff1681565b60025481565b6000819050919050565b610a2d81610a1a565b82525050565b6000602082019050610a486000830184610a24565b92915050565b60008115159050919050565b610a6381610a4e565b82525050565b6000602082019050610a7e6000830184610a5a565b92915050565b600073ffffffffffffffffffffffffffffffffffffffff82169050919050565b6000610aaf82610a84565b9050919050565b610abf81610aa4565b82525050565b6000602082019050610ada6000830184610ab6565b92915050565b600082825260208201905092915050565b7f4f6e6c79206f776e65722063616e2063616c6c20746869732066756e6374696f60008201527f6e00000000000000000000000000000000000000000000000000000000000000602082015250565b6000610b4d602183610ae0565b9150610b5882610af1565b604082019050919050565b60006020820190508181036000830152610b7c81610b40565b9050919050565b7f43616e6e6f74207769746864726177206465706f73697420756e74696c20616760008201527f7265656d656e74206973207465726d696e617465640000000000000000000000602082015250565b6000610bdf603583610ae0565b9150610bea82610b83565b604082019050919050565b60006020820190508181036000830152610c0e81610bd2565b9050919050565b7f41677265656d656e74206973206e6f7420616374697665206f72207465726d6960008201527f6e61746564000000000000000000000000000000000000000000000000000000602082015250565b6000610c71602583610ae0565b9150610c7c82610c15565b604082019050919050565b60006020820190508181036000830152610ca081610c64565b9050919050565b7f4f6e6c792074656e616e742063616e2063616c6c20746869732066756e63746960008201527f6f6e000000000000000000000000000000000000000000000000000000000000602082015250565b6000610d03602283610ae0565b9150610d0e82610ca7565b604082019050919050565b60006020820190508181036000830152610d3281610cf6565b9050919050565b7f496e636f7272656374206465706f73697420616d6f756e742073656e74000000600082015250565b6000610d6f601d83610ae0565b9150610d7a82610d39565b602082019050919050565b60006020820190508181036000830152610d9e81610d62565b9050919050565b7f43616e6e6f742077697468647261772072656e7420756e74696c20656e64206460008201527f6174650000000000000000000000000000000000000000000000000000000000602082015250565b6000610e01602383610ae0565b9150610e0c82610da5565b604082019050919050565b60006020820190508181036000830152610e3081610df4565b9050919050565b7f496e636f72726563742072656e7420616d6f756e742073656e74000000000000600082015250565b6000610e6d601a83610ae0565b9150610e7882610e37565b602082019050919050565b60006020820190508181036000830152610e9c81610e60565b905091905056fea264697066735822122005b4523b77816bd09fc23f24334f87b5952e2a730845e34def9aad5e55b93dd964736f6c63430008100033",
  "immutableReferences": {},
  "source": "// SPDX-License-Identifier: MIT\r\npragma solidity >=0.4.22 <0.9.0;\r\n\r\ncontract RentalAgreement {\r\n    address public owner;\r\n    address public tenant;\r\n    uint256 public rentAmount;\r\n    uint256 public depositAmount;\r\n    uint256 public startDate;\r\n    uint256 public endDate;\r\n    bool public isActive;\r\n    bool public isTerminated;\r\n\r\n    event AgreementCreated(address indexed owner, address indexed tenant, uint256 rentAmount, uint256 depositAmount, uint256 startDate, uint256 endDate);\r\n    event RentPaid(address indexed payer, uint256 amount);\r\n    event DepositPaid(address indexed payer, uint256 amount);\r\n    event AgreementTerminated(address indexed terminator);\r\n\r\n    modifier onlyOwner() {\r\n        require(msg.sender == owner, \"Only owner can call this function\");\r\n        _;\r\n    }\r\n\r\n    modifier onlyTenant() {\r\n        require(msg.sender == tenant, \"Only tenant can call this function\");\r\n        _;\r\n    }\r\n\r\n    modifier isActiveAgreement() {\r\n        require(isActive && !isTerminated, \"Agreement is not active or terminated\");\r\n        _;\r\n    }\r\n\r\n    constructor(address _owner, address _tenant, uint256 _rentAmount, uint256 _depositAmount, uint256 _startDate, uint256 _endDate) {\r\n        owner = _owner;\r\n        tenant = _tenant;\r\n        rentAmount = _rentAmount;\r\n        depositAmount = _depositAmount;\r\n        startDate = _startDate;\r\n        endDate = _endDate;\r\n        isActive = true;\r\n        isTerminated = false;\r\n\r\n        emit AgreementCreated(owner, tenant, rentAmount, depositAmount, startDate, endDate);\r\n    }\r\n\r\n    function payRent() external payable onlyTenant isActiveAgreement {\r\n        require(msg.value == rentAmount, \"Incorrect rent amount sent\");\r\n        emit RentPaid(msg.sender, msg.value);\r\n    }\r\n\r\n    function payDeposit() external payable onlyTenant isActiveAgreement {\r\n        require(msg.value == depositAmount, \"Incorrect deposit amount sent\");\r\n        emit DepositPaid(msg.sender, msg.value);\r\n    }\r\n\r\n    function terminateAgreement() external onlyOwner isActiveAgreement {\r\n        isTerminated = true;\r\n        isActive = false;\r\n        emit AgreementTerminated(msg.sender);\r\n    }\r\n\r\n    function withdrawDeposit() external onlyOwner {\r\n        require(isTerminated, \"Cannot withdraw deposit until agreement is terminated\");\r\n        payable(owner).transfer(depositAmount);\r\n    }\r\n\r\n    function withdrawRent() external onlyOwner {\r\n        require(block.timestamp >= endDate, \"Cannot withdraw rent until end date\");\r\n        payable(owner).transfer(rentAmount);\r\n    }\r\n\r\n    receive() external payable {\r\n        // Allow contract to receive ETH\r\n    }\r\n}\r\n",
  "sourcePath": "C:\\Users\\mervi\\OneDrive\\Desktop\\Eth\\web\\contracts\\RentalAgreement.sol",
  "compiler": {
    "name": "solc",
    "version": "0.8.16+commit.07a7930e.Emscripten.clang"
  },
  "schemaVersion": "3.4.16",
  "updatedAt": "2024-04-02T17:06:22.813Z",
  "devdoc": {
    "kind": "dev",
    "methods": {},
    "version": 1
  },
  "userdoc": {
    "kind": "user",
    "methods": {},
    "version": 1
  }
}